:020000040800F2
:10000000703000200101000853180008FF15000897
:100010005118000851050008CD1F0008000000001D
:10002000000000000000000000000000FB180008B5
:100030005305000800000000F9180008FD1800082A
:100040001B0100081B0100081B0100081B01000820
:100050001B0100081B0100081B0100081B01000810
:100060001B0100081B0100081B0100081B01000800
:100070001B0100081B0100081B0100081B010008F0
:100080001B0100081B0100081B0100081B010008E0
:100090001B0100081B0100081B0100081B010008D0
:1000A0001B0100081B0100081B0100081B010008C0
:1000B0001B0100081B0100081B0100081B010008B0
:1000C0001B0100081B0100081B0100081B010008A0
:1000D0001B0100081B0100081B010008C51E0008C9
:1000E0001B0100081B0100081B010008DFF80CD0F1
:1000F00000F09CF900480047ED1F00087030002018
:100100000648804706480047FEE7FEE7FEE7FEE7B1
:10011000FEE7FEE7FEE7FEE7FEE7FEE7511900080F
:10012000ED000008202A04DB203A21FA02F0002129
:10013000704721FA02F3D040C2F1200291400843F7
:1001400019467047D2B201E000F8012B491EFBD2DC
:1001500070470022F6E710B513460A4604461946D2
:10016000FFF7F0FF204610BD2DE9FE4F804681EAE3
:100170000300C00F0C46009021F0004123F0004521
:10018000B8EB0200A94105D24046214690461C46E4
:100190000B46024623F00040104347D0270DC7F31B
:1001A0000A00C3F30A510290401A019040286BDA0A
:1001B000C3F3130040F4801B0098924620B1002343
:1001C000D2EB030A63EB0B0B01985946C0F14002D6
:1001D000504600F0ADF806460D4650465946019A85
:1001E00000F0B5F810EB08006141002487EA1152D5
:1001F00084EAE7731A4340D0009A62B3019A012A55
:100200004FEA075215DC001B61EB02014FF0004280
:1002100002EA0752CDE90042001C41F58011324646
:100220002B4600F0B5F803B0BDE8F08F40462146FC
:10023000F9E7001B61EB0201001C41F58013001877
:100240005B412018A2F5001747EB030140EAD57087
:10025000B6196D4111E06D084FEA360645EAC075E2
:100260004FEA0752001B61EB0201001C41F58011AF
:1002700049084FEA30000019514132462B4603B07D
:10028000BDE8F04F00F075B800980122400000234F
:10029000D0EB020263EBE073009821464FEAE07472
:1002A000B8EB000061EB0401E9E783F000435BE792
:1002B00081F0004158E770B521F0004303430CD0B2
:1002C000C1F30A550024D5EB040564EB0403D617EB
:1002D000AD1AB34102DB0020014670BD201841EB8E
:1002E000025170BD0EB540F2334102910021CDE9BB
:1002F00000110A460B4600F04BF803B000BDC1F3F5
:100300000A5210B5C1F3130140F2FF3341F48011DA
:100310009A4201DA002010BD40F233439A42A2F221
:10032000334203DC5242FFF7FDFE10BD904010BD8A
:10033000202A04DB203A00FA02F1002070479140A5
:10034000C2F1200320FA03F3194390407047202A9A
:1003500006DBCB17203A41FA02F043EAE07306E0ED
:1003600041FA02F3D040C2F12002914008431946FD
:10037000704710B5141E73F1000408DA401C41F1F7
:10038000000192185B411A4301D120F0010010BD19
:100390002DE9F04D92469B4611B1B1FA81F202E08F
:1003A000B0FA80F220329046FFF7C2FF04460F46B3
:1003B00040EA0A0041EA0B0153465A46084313D06B
:1003C000114653EA010019D0C8F140025046FFF728
:1003D000A9FE05460E46504659464246FFF7A8FF7D
:1003E000084305D0012004E020463946BDE8F08DE1
:1003F0000020054346EAE0762C4337430A9863051C
:10040000E40AA0EB08000022FD0A44EA47540A303F
:1004100002D500200146E9E7010510196941DDE92F
:10042000084500196941BDE8F04DA2E7064C074DAB
:1004300006E0E06840F0010394E8070098471034B4
:10044000AC42F6D3FFF756FE2C2100084C210008E1
:1004500070B58D1810F8014B14F0030201D110F89B
:10046000012B231106D110F8013B03E010F8016BBA
:1004700001F8016B521EF9D1ABB110F8012B04F059
:100480000C048A1A0C2C03D0A2EB84129B1C08E0EB
:1004900010F8014BA2EB0422F8E712F8014B01F827
:1004A000014B5B1EF9D5A942D4D3002070BD0000DA
:1004B0002DE9F04105460F4600244FF4FA7000F094
:1004C00097F80E4E0BE000BF05EB8400B0F9021068
:1004D00041B135F824003A4600F012F8641C307837
:1004E0000028F1D13A460121002000F009F83A46EF
:1004F000BDE8F0410221002000F002B80000002019
:1005000070B515460C4640B101F0B4F900210F4812
:1005100000F048FE95FBF4F00FE0002C05DB92FBA9
:10052000F1F0BDE8704000F063B8484204B2002129
:10053000064800F037FE05FB04F000F059F8BDE86E
:1005400070400021014800F045BE00006C270020EB
:10055000FEE770477047000010B590F821100024A6
:10056000022903D00421816301243DE001680A6867
:1005700022F00E020A6001680A6822F001020A6095
:100580001A4A0168914201D1012121E0174A14322F
:10059000914201D110211BE0144A2832914201D12D
:1005A000891515E0114A3C32914201D189140FE0BE
:1005B0000E4A5032914202D14FF4803108E00B4A8A
:1005C0006432914202D14FF4801101E04FF080710A
:1005D000064A083A5160012180F82110002180F874
:1005E0002010416B01B18847204610BD0800024031
:1005F00070B5044600F0F2F80546601C02D00448CD
:100600000078044400F0EAF8401BA042FAD370BD21
:100610005C2700202DE9F84FDFF890A100220AF1B5
:10062000040B144601274FF00F090BF1040E00BF15
:100630000B6807FA04F52B40AB4274D1DFF870C1A8
:100640004E68A6EB0C0866452BD00DDC032E34D08B
:1006500005DC36B3012E19D0022E2FD11BE0112E4E
:1006600016D0122E2AD119E0B8F5881F19D006DC51
:10067000B8F5803F15D0B8F5801F1FD111E0B8F54F
:10068000001F0ED0B8F5041F18D10AE0CA6815E0A3
:10069000CA68121D12E0CA6808320FE0CA680C323C
:1006A0000CE08A682AB1012A4FF0080203D04561A4
:1006B00004E0042202E0056100E00022FF2B01D8E3
:1006C000064601E000F104064FEA840501D9A5F1D0
:1006D0002005D6F800C009FA05F82CEA080C02FA41
:1006E00005F54CEA050CC6F800C04D68ED0057D57D
:1006F000304DAE6946F00106AE61AD6924F00306E7
:1007000005F0010500952C4D06EB050CDCF80850B2
:10071000A6074FEA167809FA08F6B543274EB04205
:1007200002D1002610E03BE0254EB04201D1012667
:100730000AE0244EB04201D1022605E0224EB0422A
:1007400001D1032600E0042606FA08F62E43CCF871
:1007500008604D68DAF80060ED03554601D51E4388
:1007600000E09E432E604D68DBF80060AD035D46FF
:1007700001D51E4300E09E432E604D68DEF8006008
:10078000ED02754601D51E4300E09E432E604D6884
:10079000AD020E4D2E6801D51E4300E09E432E6033
:1007A000641C102CFFF444AFBDE8F88F0004014036
:1007B000000011100010024000000140000801403C
:1007C000000C014000100140001401400C040140E5
:1007D0000AB1016170470904FBE700000148806825
:1007E000704700005C2700200248816802781144AD
:1007F000816070475C270020074810B5016841F010
:1008000010010160032000F073F8002000F006F8EA
:1008100000F024F8002010BD0020024070B50D4DFE
:1008200004464FF47A712878B1FBF0F00A49096860
:10083000B1FBF0F000F0FCFA48B9102C07D200220E
:100840002146501E00F034F800206C6070BD01207D
:1008500070BD00005C270020682700200C4808B508
:10086000816941F001018161816901F0010100911B
:10087000C16941F08051C161C06900F080500090B1
:100880000448416821F0E06141F08061416008BDA9
:10089000001002400000014000F01F0201219140C1
:1008A0004009800000F1E020C0F80011704700000E
:1008B000F0B40E4B1B680C46C3F30223C3F10705CB
:1008C000042D00D90425191D072901D2002300E0B9
:1008D000DB1E012606FA05F1491E214099409E4083
:1008E000761E16403143F0BC00F0B4BF0CED00E0C2
:1008F000064900F0070208684FF6FF03184040EA77
:100900000220034A10430860704700000CED00E02D
:100910000000FA052DE9F047DFF8548105460E4640
:10092000D8F8000000F00700B0420CD2D8F8001050
:1009300021F007013143C8F80010D8F8000000F09A
:100940000700B0426FD128684A4C810712D5400792
:1009500003D5606840F4E06060602878000703D544
:10096000606840F4605060606068A96820F0F00042
:10097000084360602878C00744D06868012816D012
:100980002168022816D0890700294CDA616821F015
:10099000030101436160FFF721FF6968074641F2E7
:1009A000883001290ED00229814618D026E021681E
:1009B0008903E9E78901E7E7FFF710FFC11B494514
:1009C00001D918E081466068C0F381000128F3D1A5
:1009D00018E000BFFFF702FFC11B49450BD8606854
:1009E000C0F381000228F5D10CE000BFFFF7F6FE4E
:1009F000C11B494502D90320BDE8F087606810F0AB
:100A00000C0FF3D1D8F80010404601F00701B142B5
:100A10000BD9016821F0070131430160006800F043
:100A20000700B04201D00120E6E72878400705D54D
:100A30006068E96820F4E060084360602878000797
:100A400006D56068296920F4605040EAC100606002
:100A500000F036F86168084AC1F30311515CC840E0
:100A6000064908600020FFF7D9FE0020C4E7000017
:100A700000200240001002401421000868270020D6
:100A80000448054900684968044AC1F30221515CE1
:100A9000C840704768270020001002402421000849
:100AA0000448054900684968044AC1F3C221515C01
:100AB000C840704768270020001002402421000829
:100AC00012A185B00FC98DE80F0014A0144A006868
:100AD00004905168134801F00C03042B10D0082B2C
:100AE0000ED1C1F38343C9031DF803000AD5516831
:100AF00004AAC1F34041515C0A4A5043B0FBF1F0F3
:100B000005B0704708494843FAE7000002030405AE
:100B1000060708090A0B0C0D0E0F10100102000049
:100B20000010024000127A0000093D002DE9F84F44
:100B300004460078B94DC00748D06868C0F381000A
:100B4000012807D06868C0F38100022809D16868CD
:100B5000C00306D52868800338D5606800286FD0A8
:100B600034E06068B0F5803F0BD010B1B0F5A02F35
:100B700011D0286820F480302860286820F4802074
:100B800002E0286840F480302860606888B1FFF790
:100B900025FE064609E0286840F480202860F0E73A
:100BA000FFF71CFE801B642875D828688003F7D5E2
:100BB0000CE0FFF713FE064605E000BFFFF70EFE50
:100BC000801B6428F0D828688003F7D42078944EDE
:100BD00080074FF001094FF000083BD5686810F01E
:100BE0000C0F07D06868C0F38100022809D168683B
:100BF000C00306D42868800714D5206901281FD1B6
:100C000010E02069B0B1C6F80090FFF7E7FD074695
:100C100005E000BFFFF7E2FDC01B0228C4D828682A
:100C20008007F7D52868616920F0F80040EAC10024
:100C300028600FE0C6F80080FFF7D0FD074606E009
:100C4000E9E000BFFFF7CAFDC01B022823D82868CF
:100C50008007F7D4207800072CD57248A169D9B154
:100C6000C0F80090FFF7BAFD074604E0FFF7B6FDB5
:100C7000C01B02280FD8686A8007F7D56A484FF46E
:100C8000FA510068B0FBF1F0009000BF0098411EDF
:100C90000091FAD20EE080E0C0F80080FFF79EFDE0
:100CA000074604E0FFF79AFDC01B022875D8686A62
:100CB0008007F7D42078400760D5E8690027C00096
:100CC00008D4E86940F08050E861E869012700F045
:100CD0008050009055480168C90513D401688346C7
:100CE00041F480710160FFF779FD824606E000BFA4
:100CF000FFF774FDA0EB0A0064284ED8DBF8000073
:100D0000C005F5D5E06801280AD008B1052813D040
:100D1000286A20F001002862286A20F0040002E01E
:100D2000286A40F001002862E06841F2883B98B1EF
:100D3000FFF754FD82460BE0286A40F00400286269
:100D4000EEE700BFFFF74AFDA0EB0A0159455AD86C
:100D5000286A8007F6D50CE0FFF740FD824605E0E3
:100D6000FFF73CFDA0EB0A0159454CD8286A8007E3
:100D7000F6D41FB1E86920F08050E861E06988B3DB
:100D80006968C1F38101022945D00228C6F8608054
:100D900004D0FFF723FD044638E034E0FFF71EFDE2
:100DA000074604E0FFF71AFDC01B02282BD828686D
:100DB0008001F7D4206AB0F5803F05D16868A1684A
:100DC00020F4003008436860D4E9080108436968EA
:100DD00021F4741108436860C6F86090FFF7FEFCC8
:100DE000044606E015E000BFFFF7F8FC001B0228F0
:100DF00009D828688001F7D50BE000BFFFF7EEFCAB
:100E0000001B022802D90320BDE8F88F2868800162
:100E1000F4D40020F8E70120F6E7000000100240BB
:100E200000004242800442426827002000700040D7
:100E300010B5401EB0F1807F01D3012010BD4FF0EE
:100E4000E02460610F21601700F004FD0020A06124
:100E500007202061002010BD30B590F83C20012A09
:100E600020D0012280F83C20022380F83D30036826
:100E70005C6824F070045C6003685C680D682C4357
:100E80005C6003689C6824F080049C6003689C6834
:100E900049680C439C6080F83D20002180F83C109C
:100EA000084630BD022030BD10B5040003D094F8D0
:100EB0003D0010B107E0012010BD002084F83C0087
:100EC000204600F00DF8022084F83D00211D206826
:100ED00000F062FD012084F83D00002010BD0000FC
:100EE00008B500680649884208D10648C16941F042
:100EF0000401C161C06900F00400009008BD000059
:100F0000000800400010024070B5044690F83C0014
:100F1000012817D0012584F83C50022084F83D00B8
:100F20002068826822F0770222F47F42826008689B
:100F3000502837D00DDC202859D005DC88B3102884
:100F400041D151E0022070BD302853D040283AD121
:100F50003FE060282ED070280BD0B0F5805F03D022
:100F6000B0F5005F2FD110E02068816821F0070103
:100F700015E0CB68D1E90121206800F04EFD216821
:100F8000886840F0770088601DE0CB68D1E90121D6
:100F9000206800F042FD2068816841F48041816052
:100FA00011E01EE0CA684968206800F0EBFD50219E
:100FB000206806E0CA684968206800F0F4FD6021F6
:100FC000206800F034FD84F83D50002084F83C0097
:100FD00070BDCA684968206800F0D4FD40212068CF
:100FE000EFE700212068ECE710212068E9E72021E5
:100FF0002068E6E730212068E3E7000010B586B0FE
:10100000002100910191029103910368114902228C
:101010001148B3F1804F13D0104CA3420ED18B690D
:1010200043F004038B61896901F0040104914021BC
:10103000CDE9001269460392FFF7ECFA06B010BD45
:101040008B6943F004038B61896901F00401049109
:101050000121EDE7001002400008014000040040BB
:1010600070B5044690F83C000D4601280DD00126CD
:1010700084F83C60022084F83D0042B1042A18D074
:10108000082A2AD00C2A4DD139E0022070BD2068F0
:1010900000F0D6FC2068816941F008018161206878
:1010A000816921F004018161206881692A69114305
:1010B00011E0206800F0ECFC2068816941F40061D7
:1010C00081612068816921F4806181612068816982
:1010D0002A6941EA0221816124E0206800F004FDD0
:1010E0002068C16941F00801C1612068C16921F02F
:1010F0000401C1612068C1692A69114311E02068B7
:1011000000F01EFD2068C16941F40061C1612068E2
:10111000C16921F48061C1612068C1692A6941EA1D
:101120000221C16184F83D60002084F83C0070BD5C
:1011300010B5040003D094F83D0010B107E0012081
:1011400010BD002084F83C00204600F00DF802207D
:1011500084F83D00211D206800F01EFC012084F869
:101160003D00002010BD000008B501680B48B1F13A
:10117000804F0BD00A4A914207D1C16941F0020168
:10118000C161C06900F00200009008BDC16941F072
:101190000101C161C06900F00100F5E700100240E3
:1011A0000004004010B504460068012200F02AFC4B
:1011B00007492068884203D1416C41F400414164F1
:1011C0002068016841F001010160002010BD0000AD
:1011D000002C014010B504460068002200F012FC0B
:1011E000104B41F2111120688A10984209D1036A0C
:1011F0000B4206D1036A134203D1436C23F400432C
:1012000043642068036A0B4206D1016A114203D18C
:10121000016821F001010160012084F83D000020F7
:1012200010BD0000002C01407047000070B502683E
:1012300004461068D168536910F00F0F51D003F0C5
:10124000010501F4907635435DD0C20705D0CA058B
:1012500003D5E26B42F00102E263420705D5DA07EB
:1012600003D0E26B42F00202E263820705D5DA079F
:1012700003D0E26B42F00402E263020705D5DA070D
:1012800003D0E26B42F00802E263E26B002A34D042
:10129000800604D5880602D5204600F0ACFC206804
:1012A0004069E16BC0F3801001F008010143204662
:1012B00024D000F092FC2068416949061AD54169A2
:1012C00021F040014161606BA0B11B494163606B3B
:1012D000FFF742F9002810D0606B416BBDE8704009
:1012E000084783060FD58B060DD52046BDE8704014
:1012F00000F081BC2046FFF797FF70BDFFF794FF19
:101300000020E06370BD030606D50B0604D5204619
:10131000BDE8704000F072BD4006F3D54806F1D537
:10132000D168204621F04001D160202184F8391095
:1013300000F064F970BD0000CB1B000870B504001C
:1013400004D094F83900002510B106E0012070BDEA
:1013500084F83850204600F023F8242084F839001F
:101360002068C16821F40051C160204600F08EFC65
:101370002068016921F4904101612068416921F0F0
:101380002A0141612068C16841F40051C160E563F0
:10139000202084F8390084F83A00002070BD000055
:1013A00030B585B000240094019402940394006841
:1013B000184988422CD11848C16941F48021C16183
:1013C000C16901F480210491816941F008018161C2
:1013D0008069124D00F0080004904FF48060009086
:1013E000022001900320039069462846FFF712F976
:1013F000E814CDE90004694628460294FFF70AF98B
:10140000002201212720FFF753FA2720FFF744FA93
:1014100005B030BD0048004000100240000C014003
:101420002DE9F843044690F83A00994616460D46D1
:1014300020284FD195B18EB194F83800012849D0B9
:10144000012084F838000027E763222084F83A005E
:10145000FFF7C4F9A6858046E68531E00120BDE8A6
:10146000F883E08D401EE085A0684346B0F5805FBC
:101470004FF000024FF020012046CDF8009004D03C
:1014800000F0EDFC98B10320E9E700F0E8FC00284B
:10149000F9D1206900282068406803D0C1B225F83E
:1014A000011B0DE0C0F3080125F8021B08E02069CC
:1014B00000282068406801D000F07F0005F8010B8B
:1014C000E08D0028CDD1202084F83A0084F83870CF
:1014D0000020C4E70220C2E790F83A30202B22D146
:1014E000F9B1F2B190F83830012B1CD081628285BD
:1014F000C2850021C163222280F83A2080F838108A
:101500000168CA6842F48072CA6001684A6942F0A0
:1015100001024A610068C16841F02001C1600020F9
:101520007047012070470220704700002DE9F0410C
:101530002E490068012709682D4D2E4C88420CD099
:10154000BDE8F0812F70002000F0C2FC2949322351
:101550000122491C2548FFF763FF60785A28F1D023
:10156000C0B200264C2802D04B2805D011E02E70C6
:1015700030202070A670E3E7A07800B9A7702F7024
:10158000002000F0A5FC1B490122491C1748FFF769
:10159000A3FF6078184F51280FD12E70A1783878AA
:1015A0000144B1FBF0F200FB1210401C1149A07085
:1015B0000122491C0D48FFF78FFF60784828BFD1F2
:1015C0002E70A17838780144491E91FBF0F200FB9F
:1015D000121111F0FF01A17000D1A070BDE8F0411F
:1015E00004490122491C0148FFF776BF2C2800203E
:1015F0000000002056270020010000207047FEE771
:1016000070B586B000242948009401940294039494
:10161000816941F010018161816901F0100104913B
:10162000816941F020018161816901F0200104910B
:10163000816941F004018161816901F00401049133
:10164000816941F0080181618069194E00F008004C
:101650004FF400550490002229463046FFF7B8F8B1
:1016600001200095CDE9010402200390694630462F
:10167000FEF7D0FF4FF440400324CDE90004694653
:101680003046FEF7C7FF4FF6BE70CDE9000469464D
:101690000848FEF7BFFF4FF2FF30CDE9000469466E
:1016A0000548FEF7B7FF06B070BD0000001002400D
:1016B0000010014000080140000C014010B58AB044
:1016C000002407941C2168460894FEF742FD184840
:1016D0004FF0804101600821C0E9011440F69F717C
:1016E000C0E9031480218161FFF722FD08B1FEF7F4
:1016F00031FF079407A90E480894FFF7ADFB08B126
:10170000FEF728FF602000904FF4FA60019002205D
:10171000029004200490002269460548FFF7A0FCCF
:1017200008B1FEF717FF0248FFF768FC0AB010BDCA
:101730006C27002010B58AB0002407941C2168464D
:101740000894FEF706FD1848164901600821C0E913
:10175000011440F69F71C0E9031480218161FFF7F5
:10176000E7FC08B1FEF7F6FE079407A90E480894B7
:10177000FFF772FB08B1FEF7EDFE602000904FF41A
:10178000FA60CDE90104042004900022694606486D
:10179000FFF766FC08B1FEF7DDFE0348FFF72EFCFD
:1017A0000AB010BD00040040AC27002010B586B080
:1017B000002418480094019402940394049414495A
:1017C0000594016040F2CF21C0E9011444F61F6185
:1017D000C0E9031480218161FFF766FB08B1FEF7C1
:1017E000B9FE4FF48050009069460A48FFF78CFB21
:1017F00008B1FEF7AFFE049404A906480594FFF76C
:101800002BFB002801D0FEF7A5FE06B010BD00009E
:1018100000080040EC2700200C4810B50A49016080
:101820004FF4E1214160002181600C22C160C0E9D8
:1018300004128161C161FFF781FD002803D0BDE87A
:101840001040FEF787BE10BD004800402C28002045
:10185000FEE770470907090E002806DA00F00F00BE
:1018600000F1E02080F8141D704700F1E02080F8BE
:10187000001470471D4970B5B1FBF0F088B0FEF759
:1018800031FD1B4E00223346FEF76EFCFEF737FD9E
:1018900084B21C216846FEF75CFC16494FF080407C
:1018A000002508600820C1E90105601EC1E90305A3
:1018B000802088610846FFF73BFC602000902046AE
:1018C000FEF710FD6A1EFEF7F6FC00223346FEF717
:1018D0004BFCFEF714FDCDE9010504200490002225
:1018E00069460448FFF7BCFB08B070BD00127A00DF
:1018F0000000E03F6C27002070477047FEF774BF80
:1019000030B58FB028216846FEF723FC14210AA8C1
:10191000FEF71FFC01210804CDE900100024029409
:1019200002250491CDE907504FF4E0100990684674
:10193000FFF7FCF80F20CDE90A056802CDE90C405D
:1019400002210AA80E94FEF7E5FF0FB030BD00009B
:101950000D48016841F00101016041680B4A1140E6
:10196000416001680A4A11400160016821F4802148
:101970000160416821F4FE0141604FF41F01816064
:101980000449C00308607047001002400000FFF8DF
:10199000FFFFF6FE08ED00E0F0B50268164B174CAD
:1019A000174D4FF08047984205D0B84203D0A0426F
:1019B00001D0A84203D122F070064A68324398420F
:1019C00005D0B84203D0A04201D0A84203D122F4EE
:1019D0004074CA68224322F080044A6922430260AC
:1019E0008A68C2620A688262984201D10969016309
:1019F00001214161F0BD0000002C014000040040C5
:101A00000008004010B50123046A8B409C43046227
:101A1000036A8A401343036210BD10B5846842EA2A
:101A2000032224F47F440A432243826010BD82686B
:101A300022F070020A4342F0070181607047000003
:101A400030B5026A22F001020262026A43688469C8
:101A500024F073050C682C4322F002058A682A439F
:101A60000A4DA8420BD122F00805CA6823F440733E
:101A70002A434D6922F004021D438B692B434360C6
:101A8000846149684163026230BD0000002C01405E
:101A900030B5026A22F010020262026A4368846969
:101AA0000D6824F4E64444EA05248D6822F02002FF
:101AB00042EA05120B4DA8420ED1CD6822F08002F9
:101AC00042EA05124D6923F4406343EA85038D69B8
:101AD00022F0400243EA85034360846149688163E0
:101AE000026230BD002C014030B5026A22F48072DF
:101AF0000262036A4268C46923F4007324F0730528
:101B00000C682C438D6843EA05230C4DA8420ED186
:101B1000CD6823F4006343EA05234D6922F4405263
:101B200042EA05128D6923F4806342EA051242609D
:101B3000C4614968C163036230BD0000002C0140EC
:101B400030B5026A22F480520262046A4268C369B4
:101B50000D6823F4E64343EA05238D6824F400541A
:101B600044EA0534064DA84204D14D6922F480426E
:101B700042EA85124260C36149680164046230BD73
:101B8000002C014010B5036A046A24F001040462C9
:101B9000846924F0F00444EA021423F00A020A43A0
:101BA0008461026210BD10B5036A23F01003036262
:101BB0008369046A23F4704343EA023224F0A003E9
:101BC00043EA01118261016210BD10B5406A002133
:101BD000C185C184FFF728FB10BD0168CA6822F4E3
:101BE0009072CA6001684A6922F001024A612021AC
:101BF00080F83A10704710B590F83A10222901D0B9
:101C0000022010BD8168B1F5805F11D00169002903
:101C100001681FD0496801F07F03816A4A1C826213
:101C20000B70C18D491E0904090CC18518D02BE029
:101C30000269816A002A0268526805D0D2B20A801D
:101C4000816A491C8162ECE7C2F308020A80816A5A
:101C5000891CF7E74A68816A4B1C83620A70E0E7D7
:101C60000168CA6822F02002CA600168CA6822F4CA
:101C70008072CA6001684A6922F001024A6120212B
:101C800080F83A10FFF752FC002010BD2DE9F0411A
:101C9000044600680169E26821F440511143016182
:101CA0002169A0680843616908432168CA6841F254
:101CB0000C639A430243CA6020684169A26921F417
:101CC0004071114341614C492068642532268842A5
:101CD0003CD1FEF7E5FE00EBC00101EB00106168AE
:101CE0008900B0FBF1F7FEF7DBFE00EBC00101EB72
:101CF00000106168B0468900B0FBF1F0B0FBF5F070
:101D00006FF01801484307EB800106EB0110B0FBB0
:101D1000F5F000F0F006FEF7C3FE00EBC00101EBAA
:101D2000001061688900B0FBF1F0B0FBF5F006EB44
:101D30000016FEF7B5FE00EBC00101EB0010616874
:101D40008900B0FBF1F7FEF7ABFE3BE0FEF798FE33
:101D500000EBC00101EB001061688900B0FBF1F7F6
:101D6000FEF78EFE00EBC00101EB00106168B0468B
:101D70008900B0FBF1F0B0FBF5F06FF018014843BB
:101D800007EB800106EB0110B0FBF5F000F0F00668
:101D9000FEF776FE00EBC00101EB001061688900E0
:101DA000B0FBF1F0B0FBF5F006EB0016FEF768FEB5
:101DB00000EBC00101EB001061688900B0FBF1F796
:101DC000FEF75EFE00EBC00101EB001061688900C8
:101DD000B0FBF1F0B0FBF5F06FF01801484307EBF2
:101DE000800108EB0110B0FBF5F0216800F00F0056
:101DF00030448860BDE8F0810038014090F8391027
:101E0000212901D0022070478168B1F5805F016A05
:101E10000BD04A1C0262026809785160C18C491ECD
:101E20000904090CC1840ED017E009880268C1F3C7
:101E30000801516001690029016A02D0491C016250
:101E4000ECE7891CFBE70168CA6822F08002CA60DF
:101E50000068C16841F04001C160002070472DE971
:101E6000F041984617460E460446069D1DE0681C44
:101E70001BD02DB1FEF7B2FCA0EB0800A84214D98C
:101E80002068C16821F4D071C1602068416921F0E7
:101E900001014161202084F8390084F83A000020D3
:101EA00084F838000320BDE8F0812068006836EA35
:101EB000000004D00020B842D9D00020F3E7012070
:101EC000F9E700000148FFF7B1B900002C28002015
:101ED00010B538B1FFF7CEFCBDE810400021044832
:101EE000FFF760B9BDE8104000210148FFF772B963
:101EF0006C27002044285CD00FDCA0F130001428AF
:101F000063D2DFE800F05F383B3E4144474A6262FB
:101F1000626262626262624D505363281FD010DCBD
:101F200047284CD006DC452846D046284DD14FF4F2
:101F3000DC6048E061280FD0622846D14FF49370EE
:101F400041E064280ED065280FD0662810D067289D
:101F50003BD14FF4F77036E04FF4837033E04FF429
:101F6000A57030E040F25D102DE04FF4C4702AE01F
:101F70004FF4DC7027E040F20B2024E040F24B20CD
:101F800021E040F293201EE040F2BA201BE04FF423
:101F9000447018E04FF45C7015E04FF4777012E075
:101FA00040F217400FE040F297400CE040F227501B
:101FB00009E040F2755006E04FF4C46003E04FF4CE
:101FC000F76000E00020FFF783BF7047FEE702E004
:101FD00008C8121F08C1002AFAD1704770470020B4
:101FE00001E001C1121F002AFBD17047FEF704FC7B
:101FF000FFF786FCFFF704FBFFF760FBFFF79AFB98
:10200000FFF70AFCFFF7D2FB4FF47A70FEF7F0FA05
:10201000374E71270125374C35704FF448784FF40F
:1020200016790A23012233493348FFF7F9F90A20C8
:10203000FEF7DEFA2078B84255D0FFF75BFF27782D
:10204000302F50D17127ECE72A490122491C2A4838
:10205000FFF742FAA07810B90A20FEF7C9FAA07873
:10206000012808D135706420FEF7C2FA4FF41B71C5
:102070002248FEF71DFAA078022807D135706420A7
:10208000FEF7B6FA49461E48FEF712FAA078032872
:1020900008D135706420FEF7ABFA4FF4A0711948EF
:1020A000FEF706FAA078042807D135706420FEF701
:1020B0009FFA41461448FEF7FBF9A078052807D19E
:1020C00035706420FEF794FA41461048FEF7F0F9A7
:1020D000A078062807D135706420FEF789FA4946B2
:1020E0000B48FEF7E5F920784B289AD1ACE70000C1
:1020F00000000020562700202C280020020000208D
:102100009E010020E20E0020BA2300209A25002024
:10211000D2200020000000000000000001020304A3
:102120000607080900000000010203044C21000812
:10213000000000206C27000050040008A4270008BD
:102140006C27002004090000DE1F0008100C0006A8
:102150001003010070030400100443930208100AE6
:10216000170401000000FFFF701C70041704042016
:1021700021284393021C60074B0202004B023410DB
:10218000040100BA1032931420050200EE0104305D
:102190000404000B2C3006FEFF000001242120D097
:1021A0000410030260411C2154218C520B4421680D
:1021B00021644110011848100617040200DC0CC10C
:1021C0004C4170414812029C41A02198A194618029
:1021D00061F036DC0C4150850461106168417C027D
:1021E00037939C41E8011E9C21011297DC40072790
:1021F000050200200680011A1083E00610032070FB
:10220000033001224061A425B485980160101A4A68
:10221000401A88448BB80110690C2118835D012491
:102220004534493872EE3432010C12884052880825
:102230004554022B015C493002190260810492B8B6
:102240006472B83CA138A5E4E11472025052B8D8C7
:10225000520604A110522604023D4A6C8D18034117
:10226000047A0BCC4D04046D7803655C616C49DC29
:10227000C1243EB8E8034D0C042138217001122816
:10228000528828430B0208011228413C2D84044146
:10229000184D74047E02A0043EBA70047E028404C9
:1022A000013A900211B890219C2DB80421444108B4
:1022B00041502104564BF465B4D6EE7869880D760A
:1022C000340361C04D94054590656C61D0498C41E3
:1022D000E02D4803324A0841E841205A0488611839
:1022E00021282D340372042C011230011278A148E8
:1022F000AD80030132A8A190812445A4C1AC4170F6
:1023000029F465BC411481106984ADC0069E9360B8
:102310000465D069F42D58062DF0057EBA94064167
:10232000344D3C03697C61C492042002130420A153
:10233000C0A97061A8C1AC65B445B865B4564ABCC3
:10234000499C8D4C070118A87201888D4003859027
:10235000ADBC076D0C04ADF8030D3EFC030E51B887
:10236000FC0341948DB4080D5404043E0528069ED8
:102370004BF0050E114AFC03A54C4D1C0885F44D8D
:10238000180561B40140204D80088960452C014842
:1023900060011480CDE4037EBA94074DA4096D8CCE
:1023A000060D2A7008014A100DAE3008DEB830085C
:1023B0000D8E58070D52F0030D3A5C078DEC08BEE8
:1023C00001CC062D98039E93B8058D8C05499C6D14
:1023D000A80B5E931C0965C865B845E841F0013A51
:1023E000605E70380C9E9314038D8C07DE0190079D
:1023F0004D6C0C01CACC0D3AC8032DB00C0D4638FB
:1024000004610C8DBC06BE0014092DD40C2D2407CC
:102410001E979C0D6180614461404375050C4DBC65
:102420000B01743C1E97740F1C04270504D80D4142
:102430000821E061E84D5C0E81BC2D1406012608E0
:1024400005180C1201F841084F2006480F01222CF4
:10245000613C012A580128DC6DF4062FFFFF100DA6
:1024600041C08DE0059E0BAC042DF4042DB00DADE4
:102470009409021393284D1C0E6D3804AD080DBE4F
:1024800093080D6D3804C120DE4BEC0BA1546D9404
:1024900003CD5404014498F24B988DB80ADEBA2C4F
:1024A000110122F0023B4B58A1B48D900C012E0C6F
:1024B0004DC40C85E49E4B540801466402210B6414
:1024C0008D300FBE0180067EB8E0096D4C054DD8F9
:1024D000072D50086DE405BA4B44FE01580B01224C
:1024E000586D6C088DD80A0112A84520E588CD20CA
:1024F000134D000A9A0BC82D681261049293B06DB7
:102500005008A12C81344D5C0E6DCC0A8D44079E81
:1025100002EC090D102C03011654A974AD600C4592
:1025200060810841708D2414E178F0044B02017C35
:102530000116E42D280B011CE4B201E8B29334012A
:1025400018E003304B02E00114400910E469700107
:10255000184C02390168A16C0D1804062DA4050D54
:102560001698060D4A1406011E680D3E24066D10CD
:1025700006ED78100D6424060D103C130DAE2006F8
:102580000D187806C1789E93200E0EFF4B24064D41
:102590001C060D4E24064D74080D2424068DF004EF
:1025A0000DFF24060D4B24060D2A04070D7C24067E
:1025B000013E6C8D380A6D441B6D68176DE003EDAC
:1025C000680E9E4B8C176D8C0AE128011E48ADE801
:1025D00008013A4801FF9001B1900920640DFFB055
:1025E000040DFFD40A0D22AC046D341F8D781F4DED
:1025F000B0202DD41F2DB8126DD812CD481C8DD00F
:10260000186DA811AD4C122D10208D201F4DB40A4D
:102610008D940A8D2C15215C2D10118FDC03342034
:102620006DA0162DCC0A2D44212D140B6D54216163
:102630004C5EE008129E97000B6128E12C6DDC1FB8
:10264000927524ADA8216D90119E971021ADFC0BC1
:10265000A1A45EDCC420AD282041A40118A841AC8F
:102660002D8C12022104AC614C81B09E976821012F
:102670001EB0AD7421E5904DB022AD001881B801B7
:102680002A385617982D700C016E705617704DE849
:102690000CC1342D2413610C07121003CC29F89EB1
:1026A00000D01B8D9C234DBC23DE04D0232D54224F
:1026B0009614346D5414812C21984D2405212CB28C
:1026C0000A3CE1388D10242DB01F3A14484D50209B
:1026D000AD881B8DEC1C8DB003DE14A017AD40241B
:1026E0007202886D6023415CADA0030110602D6C07
:1026F0001DCD981941F4F20B848DCC1E4DAC080110
:102700005888D6972CA5686D4425061717848DC860
:10271000046D0C224D2C212D34246DA8104D7C25E8
:102720007E93C8240213142C4D5021CFFFFFA42404
:102730007E14A02425688D4421816841647E64C88C
:10274000254D601EBE024414900400001E206D7CC6
:1027500018218CBE0A58048D0C05C1806DB4258DDE
:10276000EC0381CC8D481981A0AD580569D021506A
:1027700001526CAD4C1D41EC36140C6D940D7C0473
:102780000000FDB40A2D181EA1184D18165C060095
:10279000003030005C1F5310000100040024F400DE
:0427A0000000000035
:04000005080000ED02
:00000001FF
